{
  "contractName": "Battleship",
  "abi": [
    {
      "constant": true,
      "inputs": [
        {
          "name": "",
          "type": "uint8"
        }
      ],
      "name": "player_addr",
      "outputs": [
        {
          "name": "",
          "type": "address"
        }
      ],
      "payable": false,
      "stateMutability": "view",
      "type": "function"
    },
    {
      "constant": true,
      "inputs": [
        {
          "name": "",
          "type": "address"
        }
      ],
      "name": "player_id",
      "outputs": [
        {
          "name": "",
          "type": "uint8"
        }
      ],
      "payable": false,
      "stateMutability": "view",
      "type": "function"
    },
    {
      "constant": true,
      "inputs": [
        {
          "name": "",
          "type": "address"
        }
      ],
      "name": "players",
      "outputs": [
        {
          "name": "starts",
          "type": "bool"
        },
        {
          "name": "commitment1",
          "type": "bytes32"
        },
        {
          "name": "commitment2",
          "type": "bytes32"
        },
        {
          "name": "commitment3",
          "type": "bytes32"
        },
        {
          "name": "commitment4",
          "type": "bytes32"
        },
        {
          "name": "commitment5",
          "type": "bytes32"
        }
      ],
      "payable": false,
      "stateMutability": "view",
      "type": "function"
    },
    {
      "inputs": [],
      "payable": false,
      "stateMutability": "nonpayable",
      "type": "constructor"
    },
    {
      "anonymous": false,
      "inputs": [
        {
          "indexed": false,
          "name": "status",
          "type": "bool"
        }
      ],
      "name": "ShipsPlaced",
      "type": "event"
    },
    {
      "anonymous": false,
      "inputs": [
        {
          "indexed": false,
          "name": "status",
          "type": "uint8"
        },
        {
          "indexed": false,
          "name": "starts",
          "type": "bool"
        }
      ],
      "name": "GameStarted",
      "type": "event"
    },
    {
      "constant": false,
      "inputs": [
        {
          "name": "pos_commit1",
          "type": "bytes32"
        },
        {
          "name": "pos_commit2",
          "type": "bytes32"
        },
        {
          "name": "pos_commit3",
          "type": "bytes32"
        },
        {
          "name": "pos_commit4",
          "type": "bytes32"
        },
        {
          "name": "pos_commit5",
          "type": "bytes32"
        }
      ],
      "name": "place_ships",
      "outputs": [],
      "payable": true,
      "stateMutability": "payable",
      "type": "function"
    },
    {
      "constant": false,
      "inputs": [],
      "name": "start_game",
      "outputs": [],
      "payable": false,
      "stateMutability": "nonpayable",
      "type": "function"
    },
    {
      "constant": false,
      "inputs": [
        {
          "name": "r",
          "type": "uint256"
        },
        {
          "name": "c",
          "type": "uint256"
        }
      ],
      "name": "players_move",
      "outputs": [],
      "payable": false,
      "stateMutability": "nonpayable",
      "type": "function"
    }
  ],
  "bytecode": "0x60806040526000805460ff1916905534801561001a57600080fd5b506106058061002a6000396000f3fe6080604052600436106100555760003560e01c8063187f25c21461005a578063244967b3146100a3578063484fc198146100ba57806352cc875b146100ef578063703f6b4c1461011f578063e2eb41ff14610168575b600080fd5b34801561006657600080fd5b506100876004803603602081101561007d57600080fd5b503560ff166101d0565b604080516001600160a01b039092168252519081900360200190f35b3480156100af57600080fd5b506100b86101eb565b005b6100b8600480360360a08110156100d057600080fd5b50803590602081013590604081013590606081013590608001356103e1565b3480156100fb57600080fd5b506100b86004803603604081101561011257600080fd5b5080359060200135610541565b34801561012b57600080fd5b506101526004803603602081101561014257600080fd5b50356001600160a01b0316610545565b6040805160ff9092168252519081900360200190f35b34801561017457600080fd5b5061019b6004803603602081101561018b57600080fd5b50356001600160a01b031661055a565b6040805196151587526020870195909552858501939093526060850191909152608084015260a0830152519081900360c00190f35b6001602052600090815260409020546001600160a01b031681565b3360009081526002602052604090205460ff1661033b5760005460ff16600214156102515760408051600281526000602082015281517fca2e619de2553b49f555b8f2251a1504ec405ffd74256331b101750e45c8424f929181900390910190a16103df565b6000805460ff8082166001908101821660ff19938416178085553380865260026020818152604080892080549098169487169490941790965586548516875292909452842080546001600160a01b0319169093179092559154909116141561033b57604080514260208083019190915282518083038201815291830190925280519101206002903360009081526003602052604080822080549490930660011460ff1994851617928390557fcc69885fda6bcc1a4ace058b4a62bf5e179ea78fd58a1ccd71c22cc9b688792f546001600160a01b031682529020805460ff90921615919092161790555b60005460ff16600214156103a357336000908152600360209081526040918290205482516001815260ff90911615159181019190915281517fca2e619de2553b49f555b8f2251a1504ec405ffd74256331b101750e45c8424f929181900390910190a16103df565b604080516000808252602082015281517fca2e619de2553b49f555b8f2251a1504ec405ffd74256331b101750e45c8424f929181900390910190a15b565b3360009081526002602052604090205460ff1661043f5760005460ff166002141561043f57604080516000815290517f687d156d243b7effc177ba3a40cda69c7de986b0c1aa2871ad3af1e33cbd94679181900360200190a161053a565b662386f26fc1000034101561048857604051600160e51b62461bcd0281526004018080602001828103825260228152602001806105976022913960400191505060405180910390fd5b678ac7230489e800003411156104d257604051600160e51b62461bcd0281526004018080602001828103825260218152602001806105b96021913960400191505060405180910390fd5b3360009081526003602081815260409283902060018082018a90556002820189905592810187905560048101869055600501849055825191825291517f687d156d243b7effc177ba3a40cda69c7de986b0c1aa2871ad3af1e33cbd9467929181900390910190a15b5050505050565b5050565b60026020526000908152604090205460ff1681565b600360208190526000918252604090912080546001820154600283015493830154600484015460059094015460ff90931694919391929091908656fe416d6f756e7420746f6f206c6f772c204d696e2042657420302e3031204574686572416d6f756e7420746f6f20686967682c204d617820426574203130204574686572a165627a7a723058206b1e1557196024ab9cfd27fec446a170151c9b44f131ba21fc40ec30f519c5820029",
  "source": "pragma solidity ^0.5.8;\n\ncontract Battleship {\n    uint8 num_players = 0;\n    uint8 constant WAITING_FOR_PLAYER2 = 0;\n    uint8 constant GAME_STARTED = 1;\n    uint8 constant MAX_PLAYERS_REACHED = 2;\n    uint8 constant MAX_PLAYERS = 2;\n\n    constructor() public {}\n\n    struct Player {\n        bool starts;\n        bytes32 commitment1;\n        bytes32 commitment2;\n        bytes32 commitment3;\n        bytes32 commitment4;\n        bytes32 commitment5;\n    }\n\n    mapping (uint8 => address) public player_addr;\n    mapping (address => uint8) public player_id;\n    mapping (address => Player) public players;\n\n    event ShipsPlaced(\n        bool status\n    );\n\n    /// @param pos_commit1 SHA-3 256 Hash of the coordinates of ship1 and random nonce\n    /// @param pos_commit2 SHA-3 256 Hash of the coordinates of ship2 and random nonce\n    /// @param pos_commit3 SHA-3 256 Hash of the coordinates of ship3 and random nonce\n    /// @param pos_commit4 SHA-3 256 Hash of the coordinates of ship4 and random nonce\n    /// @param pos_commit5 SHA-3 256 Hash of the coordinates of ship5 and random nonce\n    function place_ships(bytes32 pos_commit1, bytes32 pos_commit2,\n                         bytes32 pos_commit3, bytes32 pos_commit4,\n                         bytes32 pos_commit5) public payable {\n        if (player_id[msg.sender] == 0) {\n            if (num_players == 2) {\n                emit ShipsPlaced(false);\n                return;\n            }\n        }\n        require(msg.value >= 0.01 ether, \"Amount too low, Min Bet 0.01 Ether\");\n        require(msg.value <= 10 ether, \"Amount too high, Max Bet 10 Ether\");\n        players[msg.sender].commitment1 = pos_commit1;\n        players[msg.sender].commitment2 = pos_commit2;\n        players[msg.sender].commitment3 = pos_commit3;\n        players[msg.sender].commitment4 = pos_commit4;\n        players[msg.sender].commitment5 = pos_commit5;\n        emit ShipsPlaced(true);\n    }\n\n    event GameStarted(\n        uint8 status,\n        bool starts\n    );\n\n    function start_game() public {\n        if (player_id[msg.sender] == 0) {\n            if (num_players == 2) {\n                emit GameStarted(MAX_PLAYERS_REACHED, false);\n                return;\n            }\n            num_players = num_players + 1;\n            player_id[msg.sender] = num_players;\n            player_addr[num_players] = msg.sender;\n            if (num_players == 2) {\n                players[msg.sender].starts = (uint256(keccak256(abi.encodePacked(now))) % 2) == 1;  // randomly choose the player that starts the game\n                players[player_addr[1]].starts = !players[msg.sender].starts;\n            }\n        }\n        if (num_players == 2) {\n            emit GameStarted(GAME_STARTED, players[msg.sender].starts);\n            return;\n        }\n        emit GameStarted(WAITING_FOR_PLAYER2, false);\n    }\n\n    function players_move(uint r, uint c) public {\n        \n    } \n}",
  "sourcePath": "/home/bhavidhingra/google-drive-iiith/Semester_#3/CSE512_Distributing_Trust_and_Block_Chains/Assignments/2/Battleship-Dapp/contracts/Battleship.sol",
  "compiler": {
    "name": "solc",
    "version": "0.5.8+commit.23d335f2.Emscripten.clang"
  },
  "schemaVersion": "3.0.16",
  "updatedAt": "2019-12-15T19:44:05.934Z",
  "devdoc": {
    "methods": {
      "place_ships(bytes32,bytes32,bytes32,bytes32,bytes32)": {
        "params": {
          "pos_commit1": "SHA-3 256 Hash of the coordinates of ship1 and random nonce",
          "pos_commit2": "SHA-3 256 Hash of the coordinates of ship2 and random nonce",
          "pos_commit3": "SHA-3 256 Hash of the coordinates of ship3 and random nonce",
          "pos_commit4": "SHA-3 256 Hash of the coordinates of ship4 and random nonce",
          "pos_commit5": "SHA-3 256 Hash of the coordinates of ship5 and random nonce"
        }
      }
    }
  },
  "userdoc": {
    "methods": {}
  }
}