{
  "contractName": "Helper",
  "abi": [
    {
      "constant": true,
      "inputs": [
        {
          "name": "sx",
          "type": "uint8"
        },
        {
          "name": "sy",
          "type": "uint8"
        },
        {
          "name": "ex",
          "type": "uint8"
        },
        {
          "name": "ey",
          "type": "uint8"
        },
        {
          "name": "nonce",
          "type": "uint256"
        }
      ],
      "name": "generate_commitment",
      "outputs": [
        {
          "name": "",
          "type": "bytes32"
        }
      ],
      "payable": false,
      "stateMutability": "pure",
      "type": "function"
    }
  ],
  "bytecode": "0x608060405234801561001057600080fd5b50610100806100206000396000f3fe6080604052348015600f57600080fd5b506004361060285760003560e01c8063f1fba4a714602d575b600080fd5b606a600480360360a0811015604157600080fd5b5060ff81358116916020810135821691604082013581169160608101359091169060800135607c565b60408051918252519081900360200190f35b6040805160ff96871660f890811b602080840191909152968816811b6021830152948716851b60228201529290951690921b60238201526024808201929092528351808203909201825260440190925281519101209056fea165627a7a7230582056258fa50bf5266832b2beedf5ad5f0050aa6aac208e75d9d1be9c1c6d696cd40029",
  "source": "pragma solidity ^0.5.8;\n\ncontract Helper {\n    function generate_commitment(uint8 sx, uint8 sy, uint8 ex, uint8 ey, uint256 nonce) public pure returns (bytes32) {\n        return keccak256(abi.encodePacked(sx, sy, ex, ey, nonce));\n    }\n}\n",
  "sourcePath": "/home/bhavidhingra/google-drive-iiith/Semester_#3/CSE512_Distributing_Trust_and_Block_Chains/Assignments/2/Battleship-Dapp/contracts/Helper.sol",
  "compiler": {
    "name": "solc",
    "version": "0.5.8+commit.23d335f2.Emscripten.clang"
  },
  "schemaVersion": "3.0.16",
  "updatedAt": "2019-12-15T19:44:06.104Z",
  "devdoc": {
    "methods": {}
  },
  "userdoc": {
    "methods": {}
  }
}